:020000040800F2
:100000001052012071020008F3390008C9250008C8
:1000100089390008DD140008719D00080000000007
:10002000000000000000000000000000018D00083A
:10003000811E000800000000BF070008ED8E0008C8
:100040008B0200088B0200088B0200088B0200085C
:100050008B0200088B0200088B0200088B0200084C
:100060008B0200088B0200088B0200088B0200083C
:100070008B0200088B020008491A00088B02000856
:100080008B020008591A00088B0200088B02000836
:100090008B0200088B0200088B0200088B0200080C
:1000A0008B0200088B0200088B0200088B020008FC
:1000B0008B020008E18F0008159000088B020008F1
:1000C0008B0200088B0200088B0200088B020008DC
:1000D0008B020008F994000809950008199500089A
:1000E0008B0200088B0200088B0200088B020008BC
:1000F0008B0200088B0200088B0200089D1A000882
:100100008B0200088B0200088B0200088B0200089B
:100110008B020008E99400088B0200088B0200089B
:100120008B0200088B0200088B0200088B0200087B
:100130008B0200088B0200088B0200088B0200086B
:100140008B0200088B0200088B0200088B0200085B
:100150008B020008DD1A0008211B00082995000801
:100160008B0200088B0200088B0200088B0200083B
:100170008B0200088B0200088B0200088B0200082B
:100180008B0200088B02000800F002F800F060F813
:100190000AA090E8000C82448344AAF10107DA45E2
:1001A00001D100F055F8AFF2090EBAE80F0013F0D4
:1001B000010F18BFFB1A43F0010318479404010014
:1001C000B40401000A444FF0000C10F8013B13F096
:1001D000070408BF10F8014B1D1108BF10F8015BA0
:1001E000641E05D010F8016B641E01F8016BF9D193
:1001F00013F0080F1EBF10F8014BAD1C0C1B09D1EA
:100200006D1E58BF01F801CBFAD505E014F8016B5B
:1002100001F8016B6D1EF9D59142D6D370470000ED
:100220000023002400250026103A28BF78C1FBD8FF
:10023000520728BF30C148BF0B6070471FB50FF091
:10024000EAFE9DE8030000F0B1F91FBD10B510BD36
:1002500000F018FA1146FFF7F1FF0DF02FF800F04B
:1002600036FA03B4FFF7F2FF03BC00F067FA0000B0
:100270000948804709480047FEE7FEE7FEE7FEE73A
:10028000FEE7FEE7FEE7FEE7FEE7FEE70448054976
:10029000054A064B70470000098F000889010008D5
:1002A000104C012010520120104E0120104E012050
:1002B00072B6704762B67047EFF3108072B670473F
:1002C00080F31088704730BF704720BF7047B0FA86
:1002D00080F0704790FAA0F0B0FA80F0704790FA82
:1002E000A0F0704770B5064600F044F9056806F1C5
:1002F0000B0020F00704B4429CBF002070BD2B46C9
:100300006A68BAB11068A04210D304F108018842AB
:100310003CBF5068586007D351681019416011689C
:10032000091B016058601460101D70BD13465268AF
:10033000002AE7D12146284600F024F90028DED122
:1003400070BD70B50446051F00F014F90068002C5C
:1003500014BF446870BD002C18BFAC423CBF20469F
:100360006468F8D301680A18AA4218BF456003D12F
:100370002A6805461144016028684119A1421CBF42
:100380006C6070BD6168696021680844286070BD58
:1003900053EA020C00F069802DE9F04B4FF00006A3
:1003A000002B1FBFB3FA83F503FA05F424FA05F610
:1003B0005E4012BF1643B2FA82F502FA05F4C5F1A7
:1003C00020051EBF22FA05FC44EA0C04203556EA3B
:1003D000044C4FEA144418BF641C4FF000084FF05F
:1003E0000009904271EB030C39D3002919BFB1FA0F
:1003F00081F701FA07F6B0FA80F700FA07F6C7F1BD
:1004000020071EBF20FA07FC46EA0C062037B6FB81
:10041000F4FCA7EB0507103F07F01F0BCBF12006FC
:100420000CFA0BFB2CFA06F644BFB3460026202F2D
:10043000A4BF5E464FF0000B5BEA060C08BF4FF00E
:10044000010B19EB0B09ABFB027C48EB0608C01B48
:1004500006FB02CC0BFB03CC71EB0C01C1E70B4696
:10046000024641464846BDE8F08B13B54FF0000008
:100470004FF00001AFF30080BDE81C407047032A35
:1004800040F2308010F0030C00F0158011F8013BB1
:10049000BCF1020F624498BF11F801CB00F8013B98
:1004A00038BF11F8013BA2F1040298BF00F801CB5C
:1004B00038BF00F8013B11F0030300F02580083A33
:1004C000C0F0088051F8043B083A51F804CBA0E88A
:1004D0000810F5E7121D5CBF51F8043B40F8043BDF
:1004E000AFF30080D20724BF11F8013B11F801CB14
:1004F00048BF11F8012B24BF00F8013B00F801CBE5
:1005000048BF00F8012B704710B5203AC0F00B80AF
:10051000B1E81850203AA0E81850B1E81850A0E807
:100520001850BFF4F5AF5FEA027C24BFB1E8185061
:10053000A0E8185044BF18C918C0BDE810405FEAD1
:10054000827C24BF51F8043B40F8043B08BF70474D
:10055000D20728BF31F8023B48BF11F8012B28BF52
:1005600020F8023B48BF00F8012B704770477047E6
:100570007047000000487047B44B01207047704737
:100580007047704738B504460A4600206946AFF305
:100590000080002808BF38BD02460099204600F0C0
:1005A0004FF8012038BD012000F064B8F8B5AFF372
:1005B0000080054600200C46102000BF0646A81902
:1005C000A0420DD9324669460020AFF300800700F3
:1005D00008BF00F04FF80098A04218BF0546C419A4
:1005E000FFF7C8FF05600746F01D20F00700461919
:1005F000284600F00AF8B44208BFF8BDA21B3146F5
:100600003868BDE8F84000F01BB800210160C0E97F
:10061000011070471020704710B500F00DF8006809
:1006200010BD10B5044600F007F8046010BD0000CE
:1006300000487047AC4B012000487047AC4B01208C
:10064000034640688C46002818BF88423CBF0346DA
:100650004068F8D318681844884207D00CF10300AA
:1006600020F00700001D411A521A0146081D0A60B9
:10067000FFF767BE10B500F039F8BDE8104000F094
:100680002FB870477546FFF7D3FFAE4605006946A1
:10069000534620F00700854618B020B5FFF7F6FD59
:1006A000BDE820404FF000064FF000074FF0000873
:1006B0004FF0000B21F00701AC46ACE8C009ACE8F4
:1006C000C009ACE8C009ACE8C0098D46704710B558
:1006D0000446AFF300802046BDE81040FFF7C1BDDF
:1006E000002801D000F02AB87047000010B501289A
:1006F00005D0002103A000F027F8012010BD09A1BA
:10070000F8E7000053494752544D454D3A204F7584
:1007100074206F662068656170206D656D6F7279F9
:10072000000000003A2048656170206D656D6F72B1
:100730007920636F727275707465640001491820C6
:10074000ABBEFEE72600020070B505460C460A2047
:1007500000E06D1C00F011F835B128780028F8D1C0
:1007600002E0641C00F009F814B120780028F8D1E8
:10077000BDE870400A20AFF3008008B569468DF8E7
:1007800000000320ABBE08BD22484FF6FF71017088
:10079000002080F309882048016881F308881F48F9
:1007A0004FF08051016062B6FEE71C484FF0805167
:1007B0000160704719484FF080510160704772B670
:1007C000EFF3098050B11EF0100F08BF20ED108A22
:1007D000203880E8F00F12490968086000B5114818
:1007E00080475DF804EB104810490A7802700C4805
:1007F0000F490A680260106890E8F00F20301EF080
:10080000100F08BFB0EC108A80F309884EF0040E78
:1008100062B6704722ED00E0D400002004ED00E055
:10082000CC000020FD5200085A0000205B00002090
:10083000D000002021B1826842F00102826003E012
:10084000826822F001028260704700000021084A9D
:100850001168084A1140D0E900231A4383681A43FB
:10086000C3681A431143044AC2F8041370470000D6
:1008700004230140E030FCFF0020014021B18268E8
:1008800042F48072826003E0826822F480728260A7
:10089000704721B1826842F40072826003E082688E
:1008A00022F400728260704730B5024600200023B7
:1008B0005068104C20400D790C6844EA0524204310
:1008C000506090680C4C2040D1E903542C438D6853
:1008D0002C434D7944EA450420439060D06A20F4CB
:1008E00070000C7D641EE4B2234340EA0350D062E2
:1008F00030BD0000FFFEFFFCFDF7FFC0F0B5044671
:100900000D4600200021092D11DDE068A5F10A0641
:1009100006EB4607072606FA07F18843A5F10A0603
:1009200006EB460603FA06F10843E0600CE0206996
:1009300005EB4507072606FA07F1884305EB450650
:1009400003FA06F108432061072A0FDA606B561E8E
:1009500006EB86071F2606FA07F18843561E06EBAC
:10096000860605FA06F10843606322E00D2A0FDAD5
:10097000206BD61F06EB86071F2606FA07F1884371
:10098000D61F06EB860605FA06F10843206310E041
:10099000E06AA2F10D0606EB86071F2606FA07F1AC
:1009A0008843A2F10D0606EB860605FA06F1084318
:1009B000E062F0BD816841F080418160704700B520
:1009C0002DED020B81B00122694601A80AF012FE4A
:1009D0009DED000A0EBD000000B59BB001213D4811
:1009E00007F05EFF0121080207F07AFF01200A905C
:1009F00003208DF82C0000208DF82F000AA936481E
:100A000001F0BAFC0121080207F07AFF00214FF43F
:100A1000807007F075FF002006904FF47060099019
:100A2000002008904FF48030079006A8FFF70EFFD3
:100A3000002000908DF8040001208DF805000020B2
:100A40000290049001208DF8140069462348FFF7B6
:100A50002BFF0723012208212048FFF74FFF012128
:100A60001E48FFF716FF01211C48FFF707FF012171
:100A70001A48FFF7DFFE1A4801F080F805201090B1
:100A800000200C900F90179016480E90002019909F
:100A90004FF400501490C0101290801015900F4821
:100AA0004C300D9000201A904FF4006013900020FD
:100AB00011904FF4003016900CA9094801F05EF92E
:100AC0000121074801F04EF80448FFF773FF1BB0FF
:100AD00000BD000002004000000402400020014070
:100AE00010640240102B012070B505460C4600260C
:100AF0000DB1022C00D870BDA11E06480288284600
:100B000001F01EFD0646A01E2E54310A601E295417
:100B100000BFF0E76407002070B505460C460026CC
:100B20000DB1022C00DC70BD601E81B2FF22284690
:100B300001F020FD0646601E2E5400BFF3E70000C2
:100B400010B52DED0E8B0CF029FC0446FE48006814
:100B500058B1FD480068201A00EE100AF8EE400A6D
:100B60009FEDFA1A80EE810A01E0B7EE000AF8481C
:100B700080ED000AF4480460F6484078012803D06C
:100B8000F4484078032808D1F34890ED040AF3486C
:100B9000D0ED040A30EE608A0EE0EE48407804287A
:100BA00008D1EC4890ED050AEC48D0ED040A30EE8F
:100BB000608A01E09FEDEA8AEA4890ED000A38EE8B
:100BC000400AE348D0ED000A80EE201AF0EE419A88
:100BD000E54890ED000ADE48D0ED000A30EE200A2C
:100BE00090ED001AC1EE000AE04890ED000A39EEDF
:100BF000C01A90ED000A00EE810AF0EE409AC0EDB6
:100C0000009A18EE100A0FF095F941EC1C0B9FEDBD
:100C1000D80B53EC102B0EF0CDFE41EC1B0B0EF05D
:100C200057FCD549486019EE900A0FF083F941EC62
:100C30001C0B9FEDD20B53EC102B0EF0BBFE41ECC6
:100C40001B0B0EF045FCCC49C86018EE100A0FF0E3
:100C500071F941EC1D0B9FEDC90B53EC102B0EF0FD
:100C6000A9FE41EC1B0BC44890ED020A10EE101ACD
:100C700008460FF05FF941EC1C0B53EC1B2B0EF0F8
:100C800059FC41EC1E0B0EF023FCBB498860084662
:100C9000D0ED020AB0EE600ABA48D0ED000AB1EE1B
:100CA000601AD0ED000A02F0A3FAB34880ED020A00
:100CB000AC4880ED008AB04890ED010AD0ED030AFF
:100CC00030EE200AD0ED020A30EE200A80ED040A50
:100CD000D0ED040AB0EE600A9FEDAB1ADFEDAB0A6F
:100CE00002F086FAA44880ED040A9A484078022867
:100CF00003D098484078032808D1A54890ED040A0D
:100D00009648D0ED050A70EE608A0EE09148407872
:100D1000052808D18F4890ED060A9048D0ED050AC5
:100D200070EE608A01E0DFED8E8A9A4890ED000A4D
:100D300038EEC00A8648D0ED000A80EE201AB0EEE8
:100D400041AA894890ED000A8148D0ED000A30EEB2
:100D5000200A90ED001AC1EE000A8F4890ED000ABB
:100D60003AEE401A90ED000A00EE810AB0EE40AA79
:100D700080ED00AA18EE900A0FF0DCF841EC1C0B95
:100D80009FED7B0B53EC102B0EF014FE41EC1B0B74
:100D90000EF09EFB814948601AEE100A0FF0CAF867
:100DA00041EC1C0B9FED7E0B53EC102B0EF002FE62
:100DB00041EC1B0B0EF08CFB7849C86018EE900AD2
:100DC0000FF0B8F841EC1C0B9FED750B53EC102B9A
:100DD0000EF0F0FD41EC1B0B704890ED020A10EE96
:100DE000101A08460FF0A6F841EC1D0B53EC1B2B14
:100DF0000EF0A0FB41EC1E0B0EF06AFB6749886009
:100E00000846D0ED020AB0EE600A5E48D0ED000A56
:100E1000B1EE601AD0ED000A02F0EAF95F4880ED09
:100E2000020A5C48C0ED008A5C4890ED010AD0EDF2
:100E3000030A30EE200AD0ED020A30EE200A80EDDF
:100E4000040AD0ED040AB0EE600A9FED4F1ADFED00
:100E50004F0A02F0CDF9514880ED040A3D48407830
:100E600003280AD1504890ED040AB1EE400A3B48ED
:100E7000D0ED060A30EE609A01E09FED399A3748CE
:100E800090ED060A494880ED000A324890ED030AC9
:100E9000F1EE0E0A20EE200A454880ED000A454892
:100EA00090ED000A39EE400A2948D0ED000A80EEA4
:100EB000201AF0EE41AA2C4890ED000A2448D0ED0B
:100EC000000A30EE200A90ED001AC1EE000A3A48FE
:100ED00090ED000A3AEEC01A90ED000A00EE810A89
:100EE000F0EE40AAC0ED00AA19EE100A0FF022F8A9
:100EF00041EC1C0B9FED310B53EC102B0EF05AFD07
:100F000041EC1B0B0EF0E4FA2E4948601AEE900AF1
:100F10000FF010F841EC1C0B9FED2B0B53EC102B3A
:100F20000EF048FD41EC1B0B0EF0D2FA2549C860CB
:100F300019EE100A0EF0FEFF41EC1D0B9FED240B85
:100F400053EC102B48E0000080020020002474497C
:100F5000840200203849012094420120C01A012057
:100F6000000000001C0200205C020020280200207B
:100F7000B81E85EB51B89E3FA44101206132553027
:100F80002AA9433F18020020000096C300009643A0
:100F9000AC420120200200202C020020BC41012094
:100FA000FCA9F1D24D62403FC44201206002002002
:100FB0006402002024020020300200207B14AE478F
:100FC000E17AB43FD4410120691D554D10751F3F92
:100FD000FCA9F1D24D62503F0EF0ECFC41EC1B0B32
:100FE000234890ED020A10EE101A08460EF0A2FFF8
:100FF00041EC1C0B53EC1B2B0EF09CFA41EC1E0B2E
:101000000EF066FA1A4988600846D0ED020AB0EE82
:10101000600A1848D0ED000AB1EE601AD0ED000A5F
:1010200002F0E6F8124880ED020A134880ED009ABB
:101030000F4890ED010AD0ED030A30EE200AD0ED02
:10104000020A30EE200A80ED040AD0ED040AB0EE68
:10105000600A1FED331A5FED330A02F0C9F8044845
:1010600080ED040A00F0ACFABDEC0E8B10BD000060
:10107000D441012018020020240200201CB501AB3D
:1010800001224EA1524803F01BFA95E001A800236B
:101090001A46194600904E4803F052FA4D4880789F
:1010A000012878D14B48407803286ED14A4800681F
:1010B000B0F5487F0CD248480068401C464908609B
:1010C0004FF496731A461946184606F0E5FC73E08D
:1010D000012042490870FFF733FD414890ED000AB6
:1010E0004048D0ED000A30EE600AB5EEC00AF1EEDD
:1010F00010FA08DD3A4890ED000A3A48D0ED000AAF
:1011000030EE600A09E0364890ED000A3548D0ED2F
:10111000000A30EE600AB1EE400AF3EE090AB4EEBE
:10112000E00AF1EE10FA26DA2D4890ED010A2D487A
:10113000D0ED010A30EE600AB5EEC00AF1EE10FA09
:1011400008DD274890ED010A2648D0ED010A30EE6F
:10115000600A09E0224890ED010A2248D0ED010A18
:1011600030EE600AB1EE400AF3EE090AB4EEE00A8E
:10117000F1EE10FA20DB00231A461946184606F055
:101180008BFC00BFFEE706E0FFE7FFF7D9FC00207D
:101190001249087010E000200F4908600F490870DC
:1011A00000231A461946184606F076FC01F0C8FDE1
:1011B00006F012FC02F08CFD68E7000041747469CF
:1011C00074756465496E6E65725F70726F6300005E
:1011D0009C1B01203849012000010020E80000206C
:1011E000C01A0120E000002010B52DED028B0CF09C
:1011F000D5F804464748006818B146480068201AE8
:1012000000E0012000EE100AB8EE400A424880EDEE
:10121000000A40480460414890ED000A4048D0ED83
:10122000000A30EE600A3F48D0ED010A30EEC08A75
:101230009FED3D0A28EE000A3C4880ED010A3C483B
:1012400090ED000A38EE400AF9EE040A20EE200A7A
:101250003148D0ED000A80EE201A344880ED031AA0
:10126000334880ED008A314890ED010AD0ED030A41
:1012700030EE200A80ED040AD0ED040AB0EE600AD8
:101280009FED2C1ADFED2C0A01F0B2FF274880ED0C
:10129000040A224890ED010A2148D0ED010A30EEFF
:1012A000600A2048D0ED020A70EEC08A9FED230A42
:1012B00028EE800A224880ED010A224890ED000ABB
:1012C00038EEC00AF1EE040A20EE200A1248D0EDF2
:1012D000000A80EE201A1A4880ED031A1948C0ED62
:1012E000008A174890ED010AD0ED030A30EE200A7B
:1012F00080ED040AD0ED040AB0EE600A9FED0D1AED
:10130000DFED0D0A01F074FF0D4880ED040ABDEC1D
:10131000028B10BDE0020020A4020020C01A0120B0
:10132000E000002038490120008022C494420120BE
:101330009402002000409CC600409C46008022444D
:10134000AC420120900200200EB50AE0FFF74CFFEE
:1013500002A8002105230A46CDE90010084604F042
:1013600073F8F3E7F0EE400A9FED1C1AB0EE410A65
:101370001B490968491E1B4A02EB8101C1ED000AA5
:1013800000200BE0174A411C02EB810191ED001A8D
:10139000114601EB800181ED001A401C10490968DB
:1013A000491E8142EEDC002009E00E4901EB80017C
:1013B00091ED001A31EE001AB0EE410A401C0849C6
:1013C00009688842F1DB064991ED001AB8EEC11AAE
:1013D000C0EE011AB0EE610A704700000000000084
:1013E000B4010020242B01201FB5684607F098FAAD
:1013F000019804B010BD00002DED028B84B044E0D4
:1014000001F0CAF8B0EE408AFFF7ACFF1F4880ED4C
:10141000030A90ED030ADFED1E0AB4EEE00AF1EED6
:1014200010FA19D21B488078012815D001201749DD
:10143000086503A8002164230A46CDE90010084688
:1014400004F002F803A8002164230A46CDE9001045
:10145000084603F0F9FF0FE00C4890ED030ADFEDBA
:101460000E0AB4EEE00AF1EE10FA02D201200B49A6
:10147000486000200549086503A8002164230A4646
:10148000CDE90010084603F0DFFFB9E7C01A0120DC
:10149000CDCC2C413849012033330341D800002002
:1014A00010B54FF4165008F083FD0D21094808F0DF
:1014B000A9FA4FF4FA600AF0C3FF0821064808F0C1
:1014C000A1FA4FF4FA600AF0BBFF4FF4E13008F0E4
:1014D0006FFD10BDC4010020BC01002000BFFEE76D
:1014E00010B500F03DF800F019F810BD10B500245B
:1014F00000BF00BFFEF7E0FE044600BF00BF1021A2
:10150000054802F043FA00BF00BF2046FEF7D8FEB0
:1015100000BF00BF10BD00006807002010B5FFF736
:10152000E5FF10BD2DE9F0478246FFF75DFF4FF064
:1015300000098046094A002340464946FEF728FF35
:10154000064632460B4650460021FEF721FF044670
:101550000D4620462946BDE8F087000040420F00B6
:1015600010B500200249086000F00AF810BD000024
:10157000140000200149086070470000140000209A
:1015800010B5FFF731FF04460848006840F080704E
:10159000064908600020064948600846006840F097
:1015A000010008602046FFF7E5FF10BDFCED00E0FC
:1015B000001000E00149486870470000001000E09A
:1015C00010B59F484078032871D19E4890ED040AD9
:1015D000B1EE400A9C48D0ED040A30EE600A9B4808
:1015E000D0ED040A30EE200A9948D0ED040A30EE1E
:1015F000600ADFED980A30EE200ABCEEC00A964879
:1016000080ED000A8F4890ED040A8F48D0ED040A5F
:1016100030EE600A8D48D0ED040A30EE200A8C4886
:10162000D0ED040A30EE200ADFED8A0A30EE200AFF
:10163000BCEEC00A884880ED010A824890ED040A99
:101640008148D0ED040A30EE200A8048D0ED040A2B
:1016500030EE200A7E48D0ED040A30EE600ADFED5D
:101660007D0A30EE200ABCEEC00A7B4880ED020AFB
:10167000744890ED040AB1EE400A7348D0ED040AB4
:1016800030EE200A7148D0ED040A30EE200A70488E
:10169000D0ED040A30EE200ADFED6E0A30EE200AAB
:1016A000BCEEC00A6C4880ED030A81E0FFE76448A5
:1016B0004078042803D062484078012838D1614836
:1016C00090ED040AB1EE400A6448D0ED000A30EE15
:1016D000200ABCEEC00A604880ED000A594890ED2F
:1016E000040A5E48D0ED000A30EE200ABCEEC00AC3
:1016F000594880ED010A534890ED040A5748D0ED4F
:10170000000A30EE200ABCEEC00A534880ED020AFF
:101710004C4890ED040AB1EE400A5048D0ED000A62
:1017200030EE200ABCEEC00A4B4880ED030A3FE0D1
:1017300043484078022803D041484078052837D1F3
:10174000414890ED040AB1EE400A4448D0ED000A49
:1017500030EE200ABCEEC00A3F4880ED000A3A484D
:1017600090ED040AB1EE400A3C48D0ED000A30EE9C
:10177000200ABCEEC00A384880ED010A324890EDDC
:10178000040A3648D0ED000A30EE200ABCEEC00A4A
:10179000314880ED020A2C4890ED040A2F48D0ED24
:1017A000000A30EE200ABCEEC00A2B4880ED030A86
:1017B00029480068B0F5617F03D94FF4617026496C
:1017C000086025484068B0F5617F03D94FF4617027
:1017D0002149486020488068B0F5617F03D94FF403
:1017E00061701D4988601C48C068B0F5617F03D9ED
:1017F0004FF461701849C86017480068322802D257
:1018000032201549086014484068322802D232203C
:101810001149486010488068322802D232200E49AF
:1018200088600D48C068322802D232200A49C86058
:10183000094CE368A2686168206806F02DF910BDC4
:1018400038490120A4410120BC410120EC41012084
:10185000D441012000001644641B012044040020F0
:101860000EB502206C49086000206C4908706C4974
:101870000870CFE06848006860B96A486A4991ED2D
:10188000001A6A49D1ED000A694991ED000A06F093
:10189000A9F9B6E06048006801281CD1614890EDC4
:1018A000080AB1EE400AB0EE402A90ED070AB1EE08
:1018B000400AF0EE401A5F4890ED080AB0EE401A78
:1018C00090ED070AF0EE400A5648594991ED000A9A
:1018D00005F0D6FC95E05048006802287BD15148BD
:1018E00090ED080AB1EE400AB0EE402A90ED070AEA
:1018F000B1EE400AF0EE401A4E4890ED080AB0EE04
:10190000401A90ED070AF0EE400A45480178454834
:10191000474A92ED000A0CF01BFB424890ED0A0A80
:10192000DFED450AB4EEE00AF1EE10FA02DB012029
:101930003A49087039480078012862D1394890ED59
:101940000C0AB5EEC00AF1EE10FA02DD90ED0C0AB9
:1019500004E0344890ED0C0AB1EE400ADFED370A9E
:10196000B4EEE00AF1EE10FA08DB2E4890ED150A0D
:10197000D0ED0C0A30EE200A80ED150A294890EDD2
:101980000D0AB5EEC00AF1EE10FA02DD90ED0D0A77
:1019900004E0244890ED0D0AB1EE400ADFED270A7D
:1019A000B4EEE00AF1EE10FA08DB1E4890ED160ADC
:1019B000D0ED0D0A30EE200A80ED160A194890EDA0
:1019C000160ADFED1F0AB4EEE00AF1EE10FA0ADAA9
:1019D00090ED150A00E014E0DFED190AB4EEE00A1C
:1019E000F1EE10FA0ADB9FED170A0E4880ED150A9A
:1019F00080ED160A01200A49087002E0002008491B
:101A0000087002A8002102230A46CDE9001008460A
:101A100003F01AFD2EE70000EC000020F00000208B
:101A2000F1000020C01A01205804002054040020B6
:101A3000F8000020F83F0120CDCCCC3D0AD7233C54
:101A4000286BEE4E0000000010B502F0AFFB07F06F
:101A5000BFFF02F0C1FB10BD10B502F0A7FB0B49A0
:101A60000B4800F03BF968B10A49094800F060F8FA
:101A70000021074800F076F8012240F2266106486E
:101A800007F0A2FD02F0A8FB10BD0000008020209E
:101A9000A0600240000020200044004010B502F089
:101AA00085FB0B490B4800F019F970B14FF020513C
:101AB000084800F03DF80021064800F053F80122E4
:101AC00040F22661044807F07FFD02F085FB10BD5F
:101AD00000800028B86002400050004010B502F0BD
:101AE00065FB0B490B4800F0F9F868B10A49094851
:101AF00000F01EF80021074800F034F8012240F2FF
:101B00002661064807F060FD02F066FB10BD00008C
:101B100000802020A064024000002020001401402A
:101B200010B502F043FB07F0DFFD02F055FB10BDDE
:101B30000246094B9A4201D2084801E00648103893
:101B400001F000531BB1064B0B40C36002E0044B95
:101B50000B40836070470000106402400060024048
:101B60007D0F7D0F21B1026842F00102026003E0A7
:101B7000026822F00102026070470000016821F053
:101B8000010101600021016041608160C16001616B
:101B9000212141614A49884204D13D21484A103AF5
:101BA00091608CE046491831884205D14FF4746148
:101BB000434A103A916082E041493031884205D170
:101BC0004FF474113E4A103A916078E03C49483134
:101BD000884205D14FF07461394A103A91606EE045
:101BE00037496031884204D13649354A103AD160CC
:101BF00065E033497831884204D13349304A103A9C
:101C0000D1605CE02E499031884204D12F492C4AA2
:101C1000103AD16053E02A49A831884205D14FF0EB
:101C20003D51274A103AD16049E02949884204D100
:101C30003D21274A083A116041E025491831884280
:101C400005D14FF47461224A083A116037E0204907
:101C50003031884205D14FF474111D4A083A1160A1
:101C60002DE01B494831884205D14FF07461184A74
:101C7000083A116023E016496031884204D11149C5
:101C8000134A121F11601AE011497831884204D1B9
:101C90000D490F4A121F116011E00D499031884221
:101CA00004D10A490A4A121F116008E00849A83104
:101CB000884204D14FF03D51054A121F1160704710
:101CC000106002403D000020400F002000003D2039
:101CD000106402400146486880B2704770B5024601
:101CE000002000240025124EB24201D2114B01E027
:101CF0000F4B103B104E0E4036B11E2606EAD12483
:101D0000166806EA040502E0566906F0800501F04F
:101D100000560EB15C6800E01C68084E344004EACE
:101D2000010616B10DB1012000E0002070BD0000D9
:101D300010640240006002403C0F3C0F7D0F7D0F9D
:101D400010B501F080034BB122B1436943F0800329
:101D5000436103E0436923F08003436180290BD092
:101D60002AB1036801F01E042343036004E0036802
:101D700001F01E04A343036010BD000010B5002253
:101D80000268134B1A40CC680B6823434C69234309
:101D90008C692343CC6923430C6A23434C6A234355
:101DA0008C6A23434C6B23438C6B23431A4302609E
:101DB000426922F00702D1E90B3423431A434261FE
:101DC0000B6943604B6883608B68C36010BD000083
:101DD0003F801CF041607047BEB03DAB01221FA1A7
:101DE000224802F06DFB37E03DA800231A46194651
:101DF00000901E4802F0A4FB1D480078B0B14FF4DB
:101E000080721C491C48FEF77FFB1A48001F0068BF
:101E10001949091F0860F42210316846FEF774FB67
:101E20001548001F0FC809F0AFFF15E04FF480728E
:101E300012491148FEF768FB1048001F00680E4960
:101E4000091F0860F42210316846FEF75DFB0A485E
:101E5000001F0FC809F092FCC6E7000044617461DE
:101E60004465616C5F70726F63000000141C012098
:101E7000FC000020502F0120441D0120A02401203F
:101E80007047000030B10749096841F48061054A94
:101E9000116005E00349096821F48061014A11607D
:101EA00070470000003C024070B504460A46002618
:101EB000092502B909E0012A01D1160205E0022A2A
:101EC00001D1160201E04FF4407600F09FF805467C
:101ED000092D28D11548006820F440701349086086
:101EE00008460068304308600846006820F0F800A3
:101EF00008600846006844F0020108430B49086086
:101F00000846006840F48030086000F07FF805461D
:101F10000648006820F0020004490860084600688E
:101F200020F0F8000860284670BD0000103C024018
:101F300009201349096801F48031B1F5803F01D1CE
:101F400001201CE00E49096801F0100109B10620CA
:101F500015E00B49096801F4807109B102200EE017
:101F60000749096801F0EF0109B1072007E00449BA
:101F7000096801F0020109B1082000E0092070475A
:101F80000C3C02400348006840F0004001490860F2
:101F900070470000103C024030B502460C4609254F
:101FA00000F034F80546092D19D10E48006820F4D8
:101FB00040700C4908600846006840F400700860F2
:101FC0000846006840F001000860146000F01EF848
:101FD00005460448006820F00100024908602846D0
:101FE00030BD0000103C02400548006800F0004091
:101FF00028B1044802490C3908600348086070475A
:10200000103C024023016745AB89EFCD08B509209C
:102010000090FFF78DFF009002E0FFF789FF00902E
:102020009DF800000128F8D09DF8000008BD0000D0
:1020300010B5012204219FED060A06480AF096FA1F
:10204000012204219FED020A03480AF08FFA10BD15
:102050009A99193EDC4901205C4A012001B52DED19
:10206000020B6A46002104E013780370521C401CE6
:10207000491C0429F8D30EBD0FB410B52DED068B05
:10208000B7EE000AB0EE408A9FED8F0AF0EE408A6C
:102090009FED8E0AF0EE409A9DF82400FE287CD138
:1020A00008A840790A28FAD108A8407C5528F6D11A
:1020B00008A8807BF52871D108A88179C07901EB47
:1020C000002000B28249088008A8017A407A01EB1A
:1020D000002000B27E49488008A8C07A000201B200
:1020E00008A8807A084400EE100AB8EEC00ADFEDB6
:1020F000790A80EE201A784880ED001A774890ED32
:102100000A0AB0EE408A7248B0F9020000EE900A66
:10211000F8EEE00AB0EE600A7149724800F01DFF67
:10212000B1EE400A6A4880ED030AB0F9000000EE03
:10213000900AF8EEE00AB0EE600A6B496B4800F0D6
:102140000CFFB1EE400A624880ED040A6349D1ED0C
:10215000040AB0EE600A6649086800F0BBFE5C48FD
:1021600080ED050A5D49D1ED050AB0EE600A6049CF
:10217000096901F1300000F0ADFE554880ED060A16
:10218000D0ED050AB0EE600A5A495B4800F0E5FE62
:10219000DFED5A0A20EE200A01E086E086E0DFED5E
:1021A000580A80EE201AB0EE41AAB8EE081AF0EEF6
:1021B000080AB0EE4A0A01F01BF820EE289A4448BB
:1021C000D0ED060AB0EE600A4E494F4800F0C5FE59
:1021D000DFED4A0A20EE200ADFED490A80EE201AE0
:1021E000B0EE41AAB8EE081AF0EE080AB0EE4A0ABC
:1021F00000F0FEFF20EE280AF0EE409A344880ED11
:10220000099AC0ED0A9A90ED030AD0ED090A30EE62
:10221000600A3148D0ED000A9FED3C1A20EE811A89
:10222000C0EE010A20EE880A294880ED070A90EDE9
:10223000040AD0ED0A0A70EE200A274890ED000A41
:102240009FED321A20EE011A80EE810A20EE080A74
:102250001F4880ED080A90ED070ADFED2C0AB4EE66
:10226000E00AF1EE10FA2AD290ED080ADFED270A13
:10227000B4EEE00AF1EE10FA21D290ED010AD0EDB1
:10228000070A154890ED001A00EE810A104880ED0B
:10229000010A90ED020AD0ED080A0F4890ED001AED
:1022A00000EE810A0A4880ED020A08E09FED070A65
:1022B000074880ED070A9FED050A80ED080ABDEC8E
:1022C000068B10BC5DF814FB0000664300000000A4
:1022D000F83F0120002474490C020020C01A01209C
:1022E000244001203C400120844001209C400120EA
:1022F00044070020E4400120FC400120DB0F49405E
:1023000000003443444101205C41012000401C4650
:10231000BEB03DAB012212A1144802F0D1F81DE07D
:102320003DA800231A4619460090104802F008F90B
:102330004FF480720E490F48FEF7E6F80C48001F74
:1023400000680C49091F0860F42210316846FEF746
:10235000DBF80848001F0FC8FFF78EFEE0E700001B
:10236000466C6F775F70726F63000000EC1B01209A
:10237000102A0120401C0120F0B50A46002100234C
:10238000002400BF3DE0012505FA01F3156805EAC8
:1023900003049C4234D105684F000326BE40B54378
:1023A000056015794E00B54006683543056015791E
:1023B000012D02D01579022D16D185684F00032614
:1023C000BE40B543856055794E00B54086683543BB
:1023D0008560456801268E40B5434560456896791D
:1023E0008E40B6B235434560C5684F000326BE40F7
:1023F000B543C560D5794E00B540C6683543C56064
:10240000491C1029BFD3F0BDF0B5002300244D07AF
:10241000ED0E02FA05F3CE1000F1200555F8265016
:102420004E07F70E0F26BE40B543CF1000F1200631
:1024300046F82750CE1000F1200555F8265045EA01
:102440000304CE1000F1200545F82640F0BD0246F9
:10245000002013690B400BB1012000E00020704701
:1024600041837047018370471CB50121072006F0A6
:1024700017FA4FF44070009001208DF804000020FE
:102480008DF8060003208DF8050001208DF8070067
:1024900069462848FFF770FF0E20009001208DF854
:1024A000040000208DF8060003208DF805000120AF
:1024B0008DF8070069462048FFF75EFF80200090F6
:1024C00001208DF8040003208DF8050001208DF80F
:1024D000070069461948FFF74FFF102000900020C1
:1024E0008DF8040003208DF8050001208DF8070009
:1024F00069461248FFF740FF1020009000208DF839
:10250000040003208DF8050001208DF807006946BE
:102510000948FFF731FF4FF440710648FFF7A2FF6B
:102520000C210548FFF79EFF02210348FFF798FFA3
:102530001CBD0000000402400008024000000240F0
:1025400030B5034613B94FF6FF7030BD09E013F8FC
:10255000014B82EA0400C0B2054D35F8100080EA54
:102560002222081EA1F10101F1D11046EDE7000081
:102570003E03010830B5034605E013F8010B80EA7D
:1025800002040448025D081EA1F10105A9B2F4D1BC
:10259000104630BD3D0201080848008800EE900A50
:1025A000F8EE600ADFED061A80EEA11ADFED050AEB
:1025B00061EE200AB0EE600A70470000102B012087
:1025C000000080456CE7694100BFFEE718B5024690
:1025D000002003E0135C0DF80030401C8842F9DB5A
:1025E0009DED000A18BD10B500F088FE642009F0CA
:1025F00027FF00F01BFE642009F022FF10BD000041
:1026000010B52DED0C8BFE4800F038FBFC4890ED2A
:10261000050ADFEDFC0A20EE200ADFEDFB0A80EE62
:10262000201AB0EE418A90ED040ADFEDF60A20EEA2
:10263000200ADFEDF50A80EE201AF0EE418A90EDD7
:10264000030ADFEDF00A20EE200ADFEDEF0A80EE4C
:10265000201AB0EE419A90ED020AF0EE402A90ED79
:10266000010AB0EE402A90ED000AF0EE401AB0EEFA
:10267000481AF0EE680AB0EE490A00F045FFE34858
:1026800090ED000AE24880ED000AE24890ED000A71
:10269000DF4880ED010AE04890ED000ADC4880ED5B
:1026A000020ADE4890ED000AD94880ED030A90ED59
:1026B000000A20EE000ADA4880ED000AD44890EDC6
:1026C000000AD0ED010A20EE200AD64880ED000A6B
:1026D000CF4890ED000AD0ED020A20EE200AD24841
:1026E00080ED000ACA4890ED000AD0ED030A20EE02
:1026F000200ACE4880ED000AC54890ED010A20EE80
:10270000000ACB4880ED000AC14890ED010AD0EDE7
:10271000020A20EE200AC74880ED000ABC4890ED6E
:10272000010AD0ED030A20EE200AC34880ED000A1A
:10273000B74890ED020A20EE000AC04880ED000A7A
:10274000B34890ED020AD0ED030A20EE200ABC48FF
:1027500080ED000AAE4890ED030A20EE000AB94869
:1027600080ED000AAE4890ED000AB148D0ED000AB5
:1027700070EE200AB7EE000AB0EE001A11EE200A41
:10278000B14880ED000AAB4890ED000AA748D0EDB3
:10279000000A30EE600AF0EE000A20EE200AAA4895
:1027A00080ED010AA44890ED000A9F48D0ED000A90
:1027B00030EE200AF0EE000A20EE200AA24880ED5A
:1027C000020A9C4890ED000A9848D0ED000A30EECD
:1027D000200AF0EE000A20EE200A9B4880ED030A52
:1027E0008F4890ED000A9548D0ED000A70EE200A5F
:1027F000B7EE000AB0EE001A11EE200A924880ED02
:10280000040A8F4890ED000A8648D0ED000A30EEA9
:10281000600AF0EE000A20EE200A8B4880ED050ADF
:10282000854890ED000A8048D0ED000A30EE600A3D
:10283000F0EE000A20EE200A834880ED060A804868
:1028400090ED000A7748D0ED000A30EE200AF0EE55
:10285000000A20EE200A7C4880ED070A704890EDBF
:10286000000A7848D0ED000A70EE200AB7EE000AA0
:10287000B0EE001A11EE200A734880ED080A68488D
:1028800090ED000A6A48D0ED000A30EE200A6B484D
:10289000D0ED000A30EE600A6A48D0ED000A30EE52
:1028A000600A6A4880ED000A624890ED000A5F48BD
:1028B000D0ED000A30EE200AF0EE000A20EE200AE9
:1028C000624880ED010A5C4890ED000A5648D0ED60
:1028D000000A30EE600AF0EE000A20EE200A5B48A3
:1028E00080ED020A534890ED000A5048D0ED000AEE
:1028F00030EE600AF0EE000A20EE200A534880ED28
:10290000030A474890ED000A4948D0ED000A30EE2E
:10291000600A4A48D0ED000A30EE200A4948D0ED5E
:10292000000A30EE600A494880ED040A444890ED00
:10293000000A3C48D0ED000A30EE200AF0EE000A12
:1029400020EE200A414880ED050A3B4890ED000A40
:102950003548D0ED000A30EE200AF0EE000A20EEF5
:10296000200A3A4880ED060A354890ED000A2D48C5
:10297000D0ED000A30EE600AF0EE000A20EE200AE8
:10298000324880ED070A264890ED000A2848D0ED2D
:10299000000A30EE600A2948D0ED000A30EE600AE5
:1029A0002848D0ED000A30EE200A284880ED080AB9
:1029B000134890ED000ADFED260A80EE201A254824
:1029C00080ED071A0E4890ED010ADFED210A80EE36
:1029D000201A204880ED081A094890ED020ADFED20
:1029E0001C0A80EE201A1B4880ED091A044890ED5D
:1029F000030ADFED190A20EE200A16482EE0000037
:102A000000200120DB0F49400000344384040020F3
:102A1000F01F0120880400208C0400209004002076
:102A200054010020580100205C01002060010020BA
:102A300064010020680100206C010020700100206A
:102A40007401002078010020CC1F0120A81F012064
:102A500000008046C01A01200000C84280ED050A2F
:102A60007B4890ED040A5FED040A20EE200A7948C5
:102A700080ED040A764890ED050A5FED090A20EE24
:102A8000200A744880ED060A734890ED010A20EE92
:102A9000000AD0ED020A90ED021A00EE810AF7EE6C
:102AA000000AB0EE001A41EE400A10EE901A0846F5
:102AB0000DF040FA41EC1B0B674890ED000AD0ED99
:102AC000010A20EE200AD0ED020A90ED031A00EE72
:102AD000810AF0EE000A20EE200A10EE101A0846D5
:102AE0000DF028FA41EC1C0BB0EE4B1AF0EE6B1A0D
:102AF000B0EE4C0AF0EE6C0A08F062F9B0EE40AAB3
:102B0000F0EE60AA9FED550B53EC102B51EC1A0B15
:102B10000CF050FF41EC190B9FED520B53EC102BB6
:102B20000CF0B0FD41EC180B0CF0D2FC49494860A8
:102B30004948D0ED000A90ED021A60EE810A90ED4E
:102B4000011AD0ED031A41EE610AB0EE001A60EEF0
:102B5000810AB0EE600A0AF027FCB1EE400A5FED90
:102B6000560A20EE200A5FED590A80EE201A3948F5
:102B700080ED001A3D4890ED000AF8EE000A20EEC4
:102B8000200AD0ED000A20EE200A3948D0ED000AD4
:102B9000B0EE001A60EE810A90ED001A00EEC10A54
:102BA000F7EE000A30EE200A10EE101A08460DF07B
:102BB000C1F941EC1C0B2F4890ED000AF0EE000A21
:102BC00020EE200A2948D0ED000A20EE200A2A48EB
:102BD000D0ED000AB0EE001A60EE810A244890EDB4
:102BE000001A00EE810A10EE101A08460DF0A2F944
:102BF00041EC1D0BB0EE4C1AF0EE6C1AB0EE4D0A23
:102C0000F0EE6D0A08F0DCF8B0EE40BAF0EE60BA13
:102C100051EC1B0B0CF050FC41EC1A0B9FED0F0B11
:102C200053EC102B0CF0C6FE41EC190B9FED0D0B75
:102C300053EC102B0CF026FD41EC180B0CF048FC6B
:102C40000449886008F02AFDBDEC0C8B10BD000023
:102C500000200120C01A0120F01F01200000000008
:102C60000080664000000060FB2109408C040020C9
:102C700090040020880400208404002030B585B032
:102C8000054603A800F0B8F96946881D00F06AFB04
:102C900000241BE0032C0ADA3DF9140000EE100AB0
:102CA000B8EEC00A05EB840080ED000A0DE03DF9A6
:102CB000140000EE100AB8EEC00ADFED120A80EE32
:102CC000201A05EB840080ED001A641C062CE1DB61
:102CD000BDF90C0000EE100AB8EEC00A85ED060A38
:102CE000BDF90E0000EE100AB8EEC00A85ED070A25
:102CF000BDF9100000EE100AB8EEC00A85ED080A12
:102D000005B030BD333383411CB501AB012208A1AE
:102D10000A4801F0D5FB09E001A800231A4619462C
:102D20000090064801F00CFCFFF76AFCF4E7000095
:102D3000494D555F70726F6300000000741B0120E5
:102D40009FED370A374880ED020A9FED350A364875
:102D500080ED020A9FED320A344880ED020A9FEDB1
:102D6000300A334880ED020A9FED2D0A314880ED8C
:102D7000020A9FED2B0A304880ED020A9FED280AD7
:102D80002E4880ED000A9FED260A2D4880ED000AAE
:102D90009FED230A2B4880ED000A9FED210A2A4867
:102DA00080ED000A9FED1E0A284880ED000A9FED85
:102DB0001C0A274880ED000A9FED190A254880ED7E
:102DC000000A9FED170A244880ED000A9FED140ABF
:102DD000224880ED000A9FED120A214880ED000A8A
:102DE0009FED0F0A1F4880ED000A9FED0D0A1E4857
:102DF00080ED000A9FED0A0A1C4880ED000A9FED55
:102E0000080A1B4880ED000A9FED050A194880ED6D
:102E1000000A9FED030A184880ED000A7047000081
:102E200000000000A4410120BC410120D441012048
:102E3000344201204C420120EC41012020020020BC
:102E40001C02002024020020280200202C02002066
:102E50003002002048020020340200204C020020F2
:102E600038020020500200203C02002040020020D6
:102E700054020020440200205802002003B56A4694
:102E8000002004E013780B70521C491C401C0428DD
:102E9000F8D30CBD9FED0E1A80ED001A9FED0C1AB1
:102EA00080ED051A80ED090AC0ED0A0AB7EE001A96
:102EB00080ED071A9FED061A80ED081AB7EE001A8A
:102EC00080ED0B1A90ED001A80ED011A704700009A
:102ED00000000000F0EE400A90ED070A90ED001AA5
:102EE00020EE010A80ED010A90ED090A90ED071A23
:102EF000D0ED051A01EE210A80ED030A90ED030AD8
:102F000090ED0A1A30EE010A90ED031AC1EE001A94
:102F1000C0ED061A90ED010A90ED061AD0ED011AE7
:102F200070EEE11A01EE210A80ED020A90ED060A28
:102F3000B7EE001A31EE400A90ED031A20EE010AB6
:102F400080ED040A90ED040A80ED050A90ED020A76
:102F500080ED000A90ED020A7047F0EE400AC0EDE5
:102F6000020A91ED030A90ED021A20EE010A91ED9A
:102F7000041AD0ED011A01EE210A91ED051AD0EDE7
:102F8000001A01EE210A91ED011AD0ED041A01EEAA
:102F9000610A91ED021AD0ED031A01EE610A80ED8B
:102FA000050A90ED010A80ED000A90ED020A80ED1D
:102FB000010A90ED040A80ED030A90ED050A80ED08
:102FC000040A90ED050A704703460022002103E041
:102FD00033F911000244491C0A29F9DB0A2092FB4B
:102FE000F0F210B270470000024A127820F8121076
:102FF00070470000870100201FB504464FF40071A0
:103000006848FFF72DFA02AA0621482005F088FD3E
:103010004FF400716348FFF725FA9DF808009DF80A
:10302000091040EA0120404200B2ADF800009DF8CE
:103030000A009DF80B1040EA0120404200B2ADF8B2
:1030400002009DF80C009DF80D1040EA012000B22E
:10305000ADF80400BDF900105348FFF7C5FFBDF9F6
:10306000021051481430FFF7BFFFBDF904104E485D
:103070002830FFF7B9FF4D480078401C0A2190FB2B
:10308000F1F201FB1200494908704748FFF79CFF25
:103090004749B1F90010401A00EE100AB8EEC00A14
:1030A0004448D0ED000A20EE200ABDEEC00A10EE22
:1030B000100A00B220803C481430FFF785FF3E49DB
:1030C000B1F90010401A00EE100AB8EEC00A3B48F1
:1030D000D0ED000A20EE200ABDEEC00A10EE100A64
:1030E00000B2608030482830FFF76EFF3449B1F9F4
:1030F0000010401A00EE100AB8EEC00A3148D0EDB8
:10310000000A20EE200ABDEEC00A10EE100A00B23E
:10311000A08020882C49088060882C490880A088DD
:103120002B4908802B480078D8B3B4F900002A490D
:10313000B1F90010884202DA208827490880B4F9E2
:1031400002002649B1F90010884202DA608823495A
:103150000880B4F904002249B1F90010884202DA6B
:10316000A0881F490880B4F900001E49B1F9001079
:10317000884202DD20881B490880B4F902001A4900
:10318000B1F90010884202DD608817490880B4F95F
:1031900004001649B1F90010884202DDA0881349E5
:1031A00008801FBD00080240602001208701002028
:1031B00088010020900100208A0100209401002055
:1031C0008C01002098010020800100208201002055
:1031D00084010020A8010020A2010020A4010020F9
:1031E000A60100209C0100209E010020A0010020DB
:1031F000B4EEE00AF1EE10FA01DDB0EE600AB4EED2
:10320000C10AF1EE10FA01D2B0EE410A704703464E
:103210000022002103E033F911000244491C0A296D
:10322000F9DB0A2092FBF0F210B270472DE9FF475C
:10323000002500260027A846A946AA4600202749BF
:1032400008802749088027490880012026490870FE
:10325000002407E0642009F051F9694602A800F053
:1032600081F8641C322CF5D3002419E0C82009F041
:1032700045F9694602A800F075F8BDF90800054453
:10328000BDF90A000644BDF90C000744BDF9000071
:103290008044BDF902008144BDF904008244641CED
:1032A000B4F57A7FE2D34FF47A7095FBF0F000B278
:1032B0000A4908804FF47A7096FBF0F000B2084992
:1032C00008804FF47A7097FBF0F000B2054908804F
:1032D000002005490870BDE8FF870000320100208A
:1032E000340100203601002024010020024A127817
:1032F00020F81210704700003801002010B580211E
:103300006B2000F0EBF86E2009F09AF80721682096
:1033100000F0E4F86E2009F093F800216B2000F033
:10332000DDF8012009F08CF800211C2000F0D6F80F
:10333000012009F085F802211D2000F0CFF80120BE
:1033400009F07EF818211B2000F0C8F8012009F0D0
:1033500077F800216C2000F0C1F8012009F070F826
:1033600010BD000070B504460D464FF480714E4804
:10337000FFF776F84D4A0E213B2005F0D1FB4FF4C4
:1033800080714948FFF76EF848484078474A1278FC
:1033900040EA022001B24648FFF7A8FF4348C07840
:1033A000424A927840EA022001B241481430FFF7C5
:1033B0009DFF3E4840793D4A127940EA022001B221
:1033C0003B482830FFF792FF3848407A374A127A54
:1033D00040EA022001B236485030FFF787FF3348F9
:1033E000C07A324A927A40EA022001B23048643010
:1033F000FFF77CFF2D48407B2C4A127B40EA0220DD
:1034000001B22B487830FFF771FF2A480078401C42
:103410000A2190FBF1F201FB1200264908702448B2
:103420005030FFF7F4FE2449088021486430FFF74C
:10343000EEFE224908801E487830FFF7E8FE20495A
:1034400008801D4800881F490988401A00B2208062
:103450001A4800881C490988401A00B26080184840
:1034600000881A490988401A00B2A0801048FFF766
:10347000CEFE174908800E481430FFF7C8FE1549E4
:1034800008800B482830FFF7C2FE13490880104817
:10349000B0F9000028800F48B0F9000068800846A5
:1034A000B0F90000A88070BD00080240981F0120FC
:1034B0000C1F0120380100203A0100203C010020AF
:1034C0003E0100203201002034010020360100209E
:1034D00040010020420100204401002070B5054653
:1034E0000C464FF480710748FEF7BAFF284605F0F6
:1034F000FDFA204605F0FAFA4FF480710148FEF714
:10350000B1FF70BD0008024000B52DED068BB0EE96
:10351000403AF0EE603AB0EE414AF0EE615AF0EE19
:10352000424AB0EE625AF5EEC05AF1EE10FA09D1F5
:10353000F5EEC04AF1EE10FA04D1B5EEC05AF1EE44
:1035400010FA7DD065EEA50A44EEA40A45EE050A00
:10355000B0EE600A09F0E4FCF0EE402A25EEA20A83
:10356000F0EE405A24EEA20AF0EE404A25EE220A7E
:10357000B0EE405AA94890ED000AA948D0ED000AE3
:1035800020EE200AA748D0ED000AA74890ED001AC7
:10359000F0EE407A40EEC17AA24890ED000A9F48D2
:1035A000D0ED000A20EE200A9F48D0ED000A9C488A
:1035B00090ED001AB0EE408A00EE818A9948D0ED75
:1035C000000A90ED001AB6EE000A10EE810A944847
:1035D000D0ED000A90ED001AF0EE408A40EE818AAC
:1035E00024EEA80AB0EE409A05EE489A25EE270A86
:1035F000F0EE409A45EEE89A25EE880AB0EE40AA31
:1036000004EEE7AA894890ED000AB5EEC00AF1EE93
:1036100010FA40DD90ED000A60EE090A844890ED52
:10362000000A9FED841A00EE810A80ED000A7F48AF
:1036300090ED000A60EE290A7F4890ED000A00E054
:1036400051E09FED7C1A00EE810A80ED000A774878
:1036500090ED000A60EE0A0A784890ED000A9FEDAE
:10366000751A00EE810A80ED000A714890ED000A9B
:1036700033EE000AB0EE403A6F4890ED000A33EEA8
:10368000800AF0EE403A6D4890ED000A34EE000AF0
:10369000B0EE404A0EE09FED6A0A654880ED000AF0
:1036A0009FED670A644880ED000A9FED650A634854
:1036B00080ED000A6348D0ED000AB0EE430A00EE48
:1036C000890AB0EE403AD0ED000AB0EE630A00EE8F
:1036D000A90AF0EE403AD0ED000AB0EE440A00EE3E
:1036E0008A0AB0EE404A9FED580A23EE000AB0EE77
:1036F000403A9FED550A23EE800AF0EE403A9FEDE6
:10370000520A24EE000AB0EE404A464890ED006AA4
:103710004248D0ED006A444890ED007AB1EE660A66
:1037200020EE030A07EE630A3D48D0ED000A00EEE2
:10373000C40A3C48D0ED000A30EE200A80ED000AB1
:1037400026EE030A07EE040A3548D0ED000A00EE23
:10375000E30A3248D0ED000A30EE200A80ED000A7C
:1037600026EE230A06EEC40A2D48D0ED000A00EE2C
:10377000830A2D48D0ED000A30EE200A80ED000AC1
:1037800026EE040A06EEA30A07EE430A2448D0ED0B
:10379000000A30EE200A80ED000A2248D0ED000A2F
:1037A00090ED001A60EE810A1C4890ED001AD0EDF1
:1037B000001A41EE210A1C4890ED001AD0ED001AC3
:1037C00041EE210A164890ED001AD0ED001A41EEA4
:1037D000210AB0EE600A09F0A3FBF0EE402A11487E
:1037E00090ED000A20EE220A80ED000A0B4890EDD1
:1037F000000A20EE220A80ED000A0B4890ED000A34
:1038000020EE220A80ED000A054890ED000A20EE25
:10381000220A80ED000ABDEC068B00BD8804002062
:1038200090040020840400208C04002080040020E8
:10383000940400206F12033B980400209C04002095
:10384000000000007C0400206F12833A2DE9F04351
:103850000546002000230024A1F1010C42F82C5061
:1038600000BF06E000F1010C52F82CC042F820C065
:10387000401CA1F1010C8445F4D800201DE0002378
:1038800014E052F8238003F1010C52F82CC0E045FB
:103890000BDD52F8237003F1010C52F82CC042F8F2
:1038A00023C003F1010C42F82C705B1CA1F1010C48
:1038B000ACEB000C9C45E4D8401CA1F1010C844504
:1038C000DDD8D2E9008CACEB0806012013E000F152
:1038D000010C52F82CC052F82080ACEB080CB44517
:1038E00008DD00F1010C52F82CC052F82080ACEB3E
:1038F00008060446401CA1F1010C8445E7D89FED61
:10390000210A01F1010C0CEBDC7904F10108B8EBA0
:10391000690F19D900200AE052F820C000EE90CAC1
:10392000F8EEE00A70EE800AB0EE600A401CA04299
:10393000F2D904F1010C00EE90CAF8EE600A80EEB4
:10394000201AB0EE410A1AE0601C0AE052F820C0CA
:1039500000EE90CAF8EEE00A70EE800AB0EE600A5F
:10396000401C8842F2D3A1EB040CACF1010C00EE38
:1039700090CAF8EE600A80EE201AB0EE410ABDE867
:10398000F08300000000000000BFFEE730B50546F0
:103990000C4622460021284600F001F830BD2DE9F2
:1039A000F04105460B4694460027002402E03F0202
:1039B0001F43641C042CFAD3604605F00306294615
:1039C00046B1344603E001F8013B401E641C08B1D7
:1039D000042CF8D30A4601E080C2001F0428FBD261
:1039E000114602E001F8013B401E0028FAD1BDE873
:1039F000F081704770B5002100230F22C4781CB3FA
:103A0000174C246804F4E064C4F5E064C4F30721AF
:103A1000C1F10404E3B20A4144789C40E1B28478E5
:103A2000144021430C07210E0E4C05786155047893
:103A300004F01F050124AC4005786D11AD0005F1BF
:103A4000E025C5F8004109E0047804F01F050124D1
:103A5000AC40054D0678761145F8264070BD000053
:103A60000CED00E000E400E080E100E002490143E9
:103A7000024A1160704700000000FA050CED00E0FA
:103A800010B52DED028BB0EE408A7C4880ED028AA5
:103A900090ED020A7A48D0ED000A20EE200A79481B
:103AA000D0ED000A60EE200A774890ED001A7748C2
:103AB00090ED000A00EE810A754880ED000A6F481B
:103AC00090ED020A7348D0ED000A20EE200A6D48FE
:103AD000D0ED000A60EE200A6F4890ED001A6F48A2
:103AE00090ED000A00EE810A6D4880ED000A6348FF
:103AF00090ED020A6B48D0ED000A20EE200A6148E2
:103B0000D0ED000A60EE200A674890ED001A674881
:103B100090ED000A00EE810A654880ED000A5748E2
:103B200090ED020AD0ED010A30EE600A564880EDB1
:103B3000000A524890ED020A574880ED000A4F48AB
:103B400090ED020AD0ED010AB0EE001A01EE600A13
:103B5000D0ED000A30EE200A534880ED000A4C48B0
:103B600090ED000AFCF72BFFF0EE408A4C4890EDF8
:103B7000000AFCF724FF78EE808A4D4890ED000A99
:103B8000FCF71DFF38EE800A4A4880ED000A90EDF0
:103B9000000AB5EEC00AF1EE10FA03D19FED460A15
:103BA00080ED000A3A4890ED000A4248D0ED000A44
:103BB00080EE201A414880ED001A394890ED000A45
:103BC0003C48D0ED000A80EE201A3D4880ED001AF6
:103BD000374890ED000A3748D0ED000A80EE201AF1
:103BE000384880ED001A354890ED000A2648D0ED9F
:103BF000000A20EE200A3248D0ED000A264890ED57
:103C0000001A00EE810A2F48D0ED000A264890EDF8
:103C1000001A00EE810A2C48D0ED000A2B4890EDE6
:103C2000001A41EE000A1748C0ED000A134890ED53
:103C3000010A80ED000A90ED020A80ED010A1148A8
:103C400090ED000A204880ED000A114890ED000A2E
:103C50000E4880ED000A124890ED000A0F4880EDF2
:103C6000000A134890ED000A104880ED000A05484C
:103C700090ED000ABDEC028B10BD00000444012051
:103C80001403002024030020200400203803002017
:103C90002C03002018030020240400203C030020F3
:103CA000300300201C0300202804002040030020D3
:103CB000340300205003002017B7D13844030020FC
:103CC000480300204C03002028030020200300208C
:103CD0009FED920A924880ED000A9FED900A91486C
:103CE00080ED000A9FED8D0A8F4880ED000A9FED60
:103CF0008B0A8E4880ED000A9FED880A8C4880ED83
:103D0000000AB7EE000A8B4880ED000A9FED830A97
:103D1000894880ED000AB7EE000A884880ED000A65
:103D20009FED7E0A864880ED000A9FED7C0A85485B
:103D300080ED000A9FED790A834880ED000A9FED2F
:103D4000770A824880ED000A9FED740A804880ED72
:103D5000000A9FED720A80ED010A9FED700A80ED66
:103D6000020A9FED6E0A7B4880ED000A9FED6B0A08
:103D7000794880ED000A9FED690A784880ED000AD5
:103D80009FED660A764880ED000A9FED640A75484B
:103D900080ED000AB7EE000A734880ED000A9FED3F
:103DA0005F0A724880ED000AB7EE000A704880EDA5
:103DB000000A9FED5A0A6F4880ED000A9FED570AEE
:103DC0006D4880ED000A9FED550A6C4880ED000AB1
:103DD0009FED520A6A4880ED000A9FED500A69483B
:103DE00080ED000A9FED4D0A80ED010A9FED4B0A20
:103DF00080ED020A9FED490A634880ED000A9FEDBD
:103E0000470A624880ED000A9FED440A604880ED51
:103E1000000A9FED420A5F4880ED000A9FED3F0ACD
:103E20005D4880ED000AB7EE000A5C4880ED000AAC
:103E30009FED3A0A5A4880ED000AB7EE000A594849
:103E400080ED000A9FED350A574880ED000A9FED8E
:103E5000330A564880ED000A9FED300A544880ED41
:103E6000000A9FED2E0A534880ED000A9FED2B0AB1
:103E7000514880ED000A9FED290A80ED010A9FED6F
:103E8000270A80ED020A9FED250A4C4880ED000AC2
:103E90009FED220A4A4880ED000A9FED200A49481A
:103EA00080ED000A9FED1D0A474880ED000A9FED56
:103EB0001B0A464880ED000AB7EE000A444880ED30
:103EC000000A9FED160A434880ED000AB7EE000A8B
:103ED000414880ED000A9FED110A404880ED000A3C
:103EE0009FED0E0A3E4880ED000A9FED0C0A3D480A
:103EF00080ED000A9FED090A3B4880ED000A9FED26
:103F0000070A2D4880ED000A9FED040A80ED010AA2
:103F10009FED020A80ED020A7047000000000000D9
:103F200024030020280300202C030020300300205D
:103F300034030020380300203C030020400300200D
:103F400044030020480300204C03002050030020BD
:103F50000444012064030020680300206C03002057
:103F60007003002074030020780300207C030020ED
:103F70008003002084030020880300208C0300209D
:103F8000900300201C440120A4030020A80300206B
:103F9000AC030020B0030020B4030020B8030020CD
:103FA000BC030020C0030020C4030020C80300207D
:103FB000CC030020D003002010440120E4030020A3
:103FC000E8030020EC030020F0030020F4030020AD
:103FD000F8030020FC03002000040020040400205B
:103FE000080400200C04002010040020704700008A
:103FF00010B50348006810B101480068804710BD43
:104000002C00002070B5044600F0BCF800204549A3
:104010000870454908704549087045490860454998
:104020000860454908704549087045490870454988
:104030000860454908604549086045490870454899
:1040400000680A21B0FBF1F043490860434800686A
:1040500058B14348056845B14048066803E0761EFC
:10406000002028602D1D002EF9D100203D49086058
:104070003D4908603D4908603D4908603D49086088
:104080003D4908603D4908603D49087001F020FE47
:1040900001F05AFE204601F0B3FB208800B170BD4C
:1040A000204601F013FC208800B1F8E7204601F01B
:1040B00019FC208800B1F2E7204601F07BFC208843
:1040C00000B1ECE7204601F033FE208800B1E6E7BE
:1040D000204601F09BFF208800B1E0E7204602F077
:1040E00067FA208800B1DAE7204601F0B7FB2088A4
:1040F00000B1D4E7204602F0D1FE208800B1CEE71F
:10410000204602F099F9208800B1C8E7204602F065
:1041100021FF208800B1C2E701F09CFAFFF766FF9B
:1041200000BFBCE7400000204100002074000020D8
:10413000CC000020D00000205A0000205B000020AE
:104140005C000020680000206C000020700000204F
:104150007C0000208C000108780000205C00010831
:104160005800010820000020240000202800002022
:104170002C000020300000203400002038000020F7
:10418000AA000020064800680649096800EB810083
:10419000054908600846006820F00700086070477D
:1041A000580001085C000108D4000020084800788D
:1041B000012800D0704707480078FA2800DBF9E7AB
:1041C00004480078401C0349087000BFF2E7000073
:1041D000410000204000002010B500242D48007848
:1041E000012800D010BD00BFFCF766F8044600BFF0
:1041F0002948007828B900BF2046FCF761F800BFC5
:10420000F0E725480078401E2349087008460078EA
:10421000002805DD00BF2046FCF752F800BFE1E7AB
:104220001E480078002805DD00BF2046FCF748F84E
:1042300000BFD7E701F038FD19490870084600783B
:1042400000EB4000174951F8200017490860084664
:10425000006816490968884205D100BF2046FCF76E
:104260002FF800BFBEE710480068D0F89000401C4F
:104270000D490968C1F890000D480068401C0C49C0
:104280000860FCF797FA00BF2046FCF719F800BF5A
:1042900000BFA7E74100002040000020740000207C
:1042A0005B00002098190020D0000020CC000020E6
:1042B000A000002010B500241F480078002800DD71
:1042C00010BD1E480078002800DDF9E700BFFBF7AD
:1042D000F3FF044600BF01F0E7FC194908700846E7
:1042E000007800EB4000174951F82000164908609B
:1042F0000846006815490968884205D100BF204674
:10430000FBF7DEFF00BFDBE70F480068D0F8900046
:10431000401C0D490968C1F890000D480068401C18
:104320000B490860FCF741FA00BF2046FBF7C8FFC5
:1043300000BF00BFC4E70000400000207400002060
:104340005B00002098190020D0000020CC00002045
:10435000A000002070B50446002518480078002809
:1043600003DD46F66250208070BD154800780128B4
:1043700003D045F689602080F6E712480078FA28D5
:1043800003DB45F209202080EEE700BF00BFFBF70A
:1043900093FF054600BF00BF0A480078401C09494A
:1043A000087001F087FD00BF00BF2846FBF788FFBB
:1043B00000BF00BF0020208000BFD5E740000020E4
:1043C00041000020740000202DE9F04105460C4614
:1043D0001646002700BF00BFFBF76EFF074600BF71
:1043E00000BF012D03D000200D49087002E001201C
:1043F0000B49087014B10B48046006E00A480068D5
:104400000A21B0FBF1F00749086000BF00BF384641
:10441000FBF756FF00BF00BF00203080BDE8F081F1
:104420007C000020780000208C00010870B5044654
:10443000002520480078002803DD46F665502080DE
:1044400070BD1D480078012803D045F689602080A2
:10445000F6E71A48007818B946F664502080EFE76E
:1044600000BF00BFFBF728FF054600BF00BF134891
:104470000078401E114908700846007800280ADDBF
:1044800000BF00BF2846FBF71BFF00BF00BF46F67A
:1044900063502080D4E701F01BFD00BF00BF284619
:1044A000FBF70EFF00BF00BFFFF704FF00202080D6
:1044B00000BFC5E74000002041000020740000203C
:1044C0002DE9F04104460E4617461D464FF0000800
:1044D00018480078002804DD42F6E1602880BDE835
:1044E000F0811CB945F6C3502880F8E700BF00BF33
:1044F000FBF7E2FE804600BF00BF0F482060276246
:1045000000206062666004F1080001F0E7FA2046CE
:1045100001F064FD09480088401C0849088000BF7C
:1045200000BF4046FBF7CCFE00BF00BF0020288044
:1045300000BFD4E74000002053454D4184000020D7
:104540002DE9F04788B00646894690461C46109DE6
:104550004FF0000A60480078002806DD46F2AE10F1
:104560002880002008B0BDE8F08726B945F6C35082
:1045700028800020F6E7B8F1000F03D0B8F5004F0F
:1045800002D100E000BF04E045F62560288000204D
:10459000E8E700BF51493068884204D045F6C4506E
:1045A00028800020DEE70CB10020206000BF00BFA3
:1045B000FBF782FE824600BF00BF306A88B1306AD6
:1045C000401E30620CB1706A2060376A00BF00BFC5
:1045D0005046FBF775FE00BF00BF0020288038461C
:1045E000C0E708F4004060B1376A00BF00BF504622
:1045F000FBF766FE00BF00BF46F2B01028803846C9
:10460000B0E73748007800280BDD00BF00BF5046F8
:10461000FBF756FE00BF00BF46F66350288000201F
:10462000A0E74B4606223146684601F0CFF900BFAD
:1046300000BF5046FBF744FE00BF00BFFFF73AFE45
:1046400000BF00BFFBF738FE824600BF00BF254811
:10465000006890F8350030B101280CD002281AD03B
:10466000032821D110E01CB11E480068006C2060B6
:104670000020288024E01CB11A480068006C2060EB
:1046800046F2A91028801BE00CB10020206047F200
:10469000D920288014E01CB112480068006C20600A
:1046A00045F6C25028800BE046F62E60288000BFF9
:1046B00000BF5046FBF704FE00BF00BF002051E7DB
:1046C00000BF376A00BF00BF5046FBF7F9FD00BFCF
:1046D00000BF384646E700004000002053454D41EA
:1046E00074000020CC0000202DE9F04105460E4664
:1046F00014462DB945F6C35020800020BDE8F08156
:104700004EB1B6F5007F07D0B6F5004F05D0B6F52F
:10471000024F04D102E000BF00BF00BF04E045F635
:10472000256020800020E9E700BF0A492868884208
:1047300004D045F6C45020800020DFE7FCF73AFFA4
:104740008046234642463146284601F06BFC074628
:104750003846D3E753454D4110B50446124800781A
:10476000E8B901F0A1FA114908700846007810492B
:1047700008700E48007800EB40000E4951F8200008
:104780000D490860084600680C4908600120064988
:104790000870FBF7F9FF43F69920208002E045F608
:1047A0008A60208010BD0000410000205B000020D6
:1047B0005A00002098190020D0000020CC000020D2
:1047C0002DE9F04107464FF0000800BF00BFFBF79E
:1047D00073FD804600BF00BF00203B4908803B4975
:1047E00008603B4908603B4908603B4908603B4919
:1047F000088100BF00BF4046FBF762FD00BF00BF5D
:1048000000BF00BFFBF758FD804600BF00BF344823
:10481000046800BF00BF4046FBF752FD00BF00BF69
:1048200021E000BF00BFFBF747FD804600BF00BF8F
:1048300000207834E06320602063A061A082E082E1
:104840006062A062FCF7B6FE2062783C04F1640668
:104850000020B081D4F8BC4000BF00BF4046FBF749
:104860002FFD00BF00BF002CDBD100BF00BFFBF756
:1048700023FD804600BF00BF1A48056800BF00BF87
:104880004046FBF71DFD00BF00BF12E000BF00BFA8
:10489000FBF712FD804600BF00BF05F12006002097
:1048A000B081AD6900BF00BF4046FBF709FD00BF06
:1048B00000BF002DEAD102F005FA02F047FC00200B
:1048C0003880BDE8F08100008A0000209C000020B4
:1048D000B0000020BC0000206C0000208C190020DB
:1048E000A400002060000020F8B5044600266946B8
:1048F000324800F0E7FCBDF8000018B1BDF8000038
:104900002080F8BD6A460021022000F03BFDBDF882
:10491000000018B1BDF800002080F2E700BF00BF22
:10492000FBF7CAFC064600BF00BF00202449086010
:1049300000BF00BF3046FBF7C3FC00BF00BF00252F
:104940002048006820490968884205D91D48006848
:104950001D490968B0FBF1F525B91A4800680A211C
:10496000B0FBF1F56A460021284600F00BFD6946D0
:10497000124800F0C1F9BDF8000018B1BDF8000000
:104980002080BEE700BF00BFFBF796FC064600BFD5
:1049900000BF00200D490860094800680C49086004
:1049A00001200C49087000BF00BF3046FBF788FCAF
:1049B00000BF00BF0020208000BFA2E7201E002013
:1049C0008C0000208C000108740001089C0000206D
:1049D000900000209800002010B50348006810B136
:1049E00001480068804710BD300000202DE9FF4FCE
:1049F00085B004469046DDE91995159F139E002069
:104A0000029061480078002805DD47F24A102880AE
:104A100009B0BDE8F08F1CB947F2AD102880F7E768
:104A2000B8F1000F03D147F24F102880F0E71EB90C
:104A300046F62F602880EBE754480068874203D28F
:104A400046F630602880E3E71498B84203D346F670
:104A500031602880DCE71298402803D346F27320A7
:104A60002880D5E712983F2806D14948844203D0D0
:104A700046F273202880CBE7204601F0A9FD0020F4
:104A8000288009F0010088B109F0020070B1B34636
:104A90000020049007E00020CBF800000BF1040B8D
:104AA0000498401C04900498B842F4D3149806EB80
:104AB00080000390CDE9007932464046039B089977
:104AC00000F0D2FA8346C4F828800898E06206987D
:104AD0002062129884F83700C4F800B00398A060F0
:104AE00017986065179818B92A480068A06501E012
:104AF0001798A065189860606662A763A4F83C9058
:104B00004FF0000A08E0002104F17C0040F82A1070
:104B10000AF1010000F0FF0ABAF1000FF3D004F12E
:104B20006400169900F03EFF204600F039F800BFFF
:104B300000BFFBF7C1FB029000BF00BF94F8370035
:104B400001F0D2F8204601F047F9204601F0F6FCCA
:104B500011480088401C104908801048007801283E
:104B600007D000BF00BF0298FBF7AAFB00BF00BF41
:104B70004EE700BF00BF0298FBF7A2FB00BF00BFDB
:104B8000FFF798FB00BF43E74000002088000108C2
:104B9000C818002078000020A80000204100002054
:104BA00010B504460348006818B120460149096859
:104BB000884710BD2000002070B504460D46002631
:104BC00043480078002803DD47F24E10288070BD6E
:104BD0004048844203D147F24C102880F7E77CB963
:104BE00000BF00BFFBF768FB064600BF00BF3A48A6
:104BF000046800BF00BF3046FBF762FB00BF00BF88
:104C000000BF00BFFBF758FB064600BF00BF94F88B
:104C1000360008282DD2DFE800F004090E10080A3B
:104C20000F11204601F018F92EE02DE000BF2046BC
:104C300002F02CF828E000BF00BF00BF204602F0C1
:104C400025F894F83400082810D2DFE800F00407B3
:104C50000508090A0B0600BF00BF08E000BF00BF3F
:104C600000BF00BF204600F071FF00E000BF00BFA2
:104C70000AE000BF00BF3046FBF722FB00BF00BFC9
:104C800046F62D602880A2E700BF04F1640000F022
:104C900067FE204600F024F8204601F067FC0F482C
:104CA0000088401E0D490880204601F091FCFF203D
:104CB00084F8360000BF00BF3046FBF701FB00BFA1
:104CC00000BF00202880FFF7F5FA00BF7FE7000053
:104CD00040000020C8180020CC000020A8000020C0
:104CE00010B504460348006818B120460149096818
:104CF000884710BD2400002070B504460D460026EC
:104D000015480078002803DD47F25510288070BD53
:104D100000BF00BFFBF7D0FA064600BF00BF1CB1C2
:104D20000E48006884420AD100BF00BF3046FBF73E
:104D3000C7FA00BF00BF47F257102880E7E700BF5F
:104D400000BF3046FBF7BCFA00BF00BF2946204633
:104D500001F0B0FC00BFDAE740000020CC000020EA
:104D600010B504460348006818B120460149096897
:104D7000884710BD280000202DE9F04780460E46E8
:104D800014461D464FF000096F480078002805DDE5
:104D900046F2AE1028800020BDE8F0871EB1B6F5BF
:104DA000004F02D100E000BF04E045F625602880F6
:104DB0000020F1E700BF0CB10020206000BF00BF61
:104DC000FBF77AFA814600BF00BF60480068406C7C
:104DD000A8B35E480068406C401E5C49096848649E
:104DE0005A480068476C1CB158480068006C206045
:104DF000FCF7E0FB55490968096C401A53490968FA
:104E0000C1F8A40051480068D0F8A8004F490968CB
:104E1000D1F8A410884207D24C480068D0F8A4000A
:104E20004A490968C1F8A80000BF00BF4846FBF71F
:104E300047FA00BF00BF002028803846ACE7FFE7F4
:104E400006F4004058B100BF00BF4846FBF738FAEF
:104E500000BF00BF46F2B010288000209CE73C480D
:104E6000007800280BDD00BF00BF4846FBF728FA9A
:104E700000BF00BF46F66350288000208CE7434601
:104E800007220021084600F0A1FD00BF00BF4846F0
:104E9000FBF716FA00BF00BFFFF70CFA00BF00BF18
:104EA000FBF70AFA814600BF00BF2848006890F867
:104EB000350020B1012826D0032834D12CE0FCB1E4
:104EC00022480068006C2060FCF774FB1F490968E9
:104ED000096C401A1D490968C1F8A4001B48006804
:104EE000D0F8A80019490968D1F8A410884207D25F
:104EF00016480068D0F8A40014490968C1F8A80051
:104F00000020288013E01CB110480068006C20606D
:104F100046F2A91028800AE00CB10020206047F278
:104F2000D920288003E046F62E60288000BF00BF0D
:104F300006480068476C00BF00BF4846FBF7C0F951
:104F400000BF00BF384627E740000020CC0000200B
:104F5000740000202DE9F04106460D4614461DB1AF
:104F6000B5F5004F02D100E000BF05E045F6256031
:104F700020800020BDE8F08100BFFCF71BFB8046CD
:104F8000234642462946304601F020FC0746384673
:104F9000F0E700002DE9F04705460E4617461C468F
:104FA0004FF0000A2E480078002804DD47F259101F
:104FB0002080BDE8F0871EB946F2D5202080F8E7B2
:104FC0001FB946F2D5202080F3E700BF00BFFBF7F2
:104FD00073F9824600BF00BF0DB9224805682868F2
:104FE00068B900BF00BF5046FBF76AF900BF00BFB9
:104FF00000203060386047F252102080D9E795F8E1
:105000003C0000F0010068B900BF00BF5046FBF74C
:1050100057F900BF00BF00203060386047F25410DD
:105020002080C6E700BF00BF5046FBF749F900BF2C
:1050300000BF4FF00008D5F8249003E009F10409FF
:1050400008F10108D9F800000028F7D0C6F8008060
:10505000A86BA0EB080038600020208000BFA8E704
:1050600040000020CC000020F0B50446DDE90556E4
:1050700002EB850020F007004FF0000C071F3846B8
:10508000C7F800C04FF4805C071F3846C7F800C05F
:105090004FF0150C071F3846C7F800C04FF0140C2E
:1050A000071F3846C7F800C04FF0130C071F3846DB
:1050B000C7F800C04FF0120C071F3846C7F800C0F1
:1050C0004FF0110C071F3846C7F800C04FF0100C06
:1050D000071F3846C7F800C04FF0090C071F3846B5
:1050E000C7F800C04FF0080C071F3846C7F800C0CB
:1050F0004FF0070C071F3846C7F800C04FF0060CEA
:10510000071F3846C7F800C04FF0050C071F384688
:10511000C7F800C04FF0040C071F3846C7F800C09E
:105120004FF0030C071F3846C7F800C04FF0020CC1
:10513000071F3846C7F800C04FF0010C071F38465C
:10514000C7F800C04FF0000C071F3846C7F800C072
:105150004FF0807C071F3846C7F800C0071F38464D
:105160003C60DFF85CC1071F3846C7F800C04FF04D
:10517000123C071F3846C7F800C04FF0033C071F1A
:105180003846C7F800C04FF0023C071F3846C7F842
:1051900000C0071F38463B60071F384639604FF094
:1051A000310C071F3846C7F800C04FF0300C071FFE
:1051B0003846C7F800C04FF0290C071F3846C7F81B
:1051C00000C04FF0280C071F3846C7F800C04FF04A
:1051D000270C071F3846C7F800C04FF0260C071FE2
:1051E0003846C7F800C04FF0250C071F3846C7F8EF
:1051F00000C04FF0240C071F3846C7F800C04FF01E
:10520000230C071F3846C7F800C04FF0220C071FB9
:105210003846C7F800C04FF0210C071F3846C7F8C2
:1052200000C04FF0200C071F3846C7F800C04FF0F1
:10523000190C071F3846C7F800C04FF0180C071F9D
:105240003846C7F800C04FF0170C071F3846C7F89C
:1052500000C04FF0160C071F3846C7F800C04FF0CB
:10526000113C071F3846C7F800C04FF0103C071F1D
:105270003846C7F800C04FF0093C071F3846C7F84A
:1052800000C04FF0083C071F3846C7F800C04FF079
:10529000073C071F3846C7F800C04FF0063C071F01
:1052A0003846C7F800C04FF0053C071F3846C7F81E
:1052B00000C04FF0043C071F3846C7F800C0F0BDDF
:1052C000B567000870B505460C460A480078002806
:1052D00003DD47F25D10208070BD0748854203D191
:1052E00047F25B102080F7E72146284601F050FB8B
:1052F00000BFF1E740000020C818002010B51D488D
:10530000006810B11B4800688047FCF753F9044659
:105310001948006819490968884215D0164800687C
:10532000D0F89800201A14490968C1F8940012486E
:105330000068D0F89C0010490968D1F8941008441E
:105340000D490968C1F89C000C480068C0F89840F5
:1053500009480068D0F8B40009490968884205D2B4
:105360000748006804490968C1F8B40000200449EE
:10537000086010BD34000020CC000020D0000020C8
:10538000700000202DE9F04105460E461446002726
:105390002A480078002804DD47F275202080BDE807
:1053A000F08127480078002803DD46F6635020800E
:1053B000F5E736B1022E05D0042E0AD0082E09D109
:1053C00001E000BF00BF1DB947F27E202080E6E764
:1053D00004E003E045F625602080E0E700BF00BF61
:1053E00000BFFAF769FF074600BF00BF012015495B
:1053F000096881F83600234632462946114800687C
:1054000001F066FB208838B100BF00BF3846FAF7CC
:1054100057FF00BF00BFC2E70A48006800F01CFD4C
:1054200000BF00BF3846FAF74BFF00BF00BFFEF7D2
:1054300041FF0020208000BFB1E7000040000020B5
:1054400074000020CC0000202DE9FF5F05460E46C9
:1054500017469846DDE90EA4002000905D480078CC
:10546000002804DD47F275202080BDE8FF9F5A48E0
:105470000078002803DD46F663502080F5E70AF047
:105480000E0BBBF1000F09D0BBF1020F07D0BBF12F
:10549000040F10D0BBF1080F0ED101E000BF00BF18
:1054A000B8F1000F06D12FB926B91DB947F27E20F9
:1054B0002080DAE704E003E045F625602080D4E7A9
:1054C00000BF2AF01E0008B1012000E00020039078
:1054D0000398012803D145F625602080C5E7CAF36B
:1054E000001002900298C0B9B8F57A7F03D347F252
:1054F0007B202080B9E73B2F03DD47F27A20208014
:10550000B3E73B2E03DD47F279202080ADE7632D22
:1055100012DD47F278202080A7E742F20F70864222
:1055200003DD47F2792020809FE7B5F57A7F03DB22
:1055300047F27820208098E72848D0F800904FF470
:10554000FA70B0FBF9F0404400FB09F04FF47A71B7
:10555000B0FBF1F14FF461606843C6EB061200EB5B
:105560008200384400FB09100190019860B300BF2D
:1055700000BFFAF7A1FE009000BF00BF012018494C
:10558000096881F8360023465A4615480199006893
:1055900001F09EFA208838B100BF00BF0098FAF7EA
:1055A0008FFE00BF00BF60E70D48006800F054FCAC
:1055B00000BF00BF0098FAF783FE00BF00BFFEF7F0
:1055C00079FE0020208002E047F27E20208000BF8C
:1055D0004BE7000040000020740000208C00010810
:1055E000CC00002008B500F02BF86A4600210E48D8
:1055F000FFF7B0FC0D49097801EB41010C4A02EBC1
:10560000810000F083FC0B480068401E09490860D7
:105610000846006838B90848006808606A460021F2
:105620000648FFF797FC08BD5C1D00205A000020CB
:1056300098190020C8000020C4000020201E00206F
:1056400010B50348006810B101480068804710BDDC
:1056500038000020244A2549254A264A2649274A57
:105660002748284A284A294A294A2A482A482B4AA8
:105670002B482C4A2C482D4A2D482E482E482F487E
:105680002F4A304A304A3148314A324A3248334848
:1056900033483448344835483548364A364A374A1C
:1056A000374A384838483948394A3A4A3A4A3B48EA
:1056B0003B483C483C493D483D4A3E4A3E4A3F4AB9
:1056C0003F4A404A404A4148414A424A4248434888
:1056D000434A444A4448454A454A4648464847485A
:1056E00000BF00BF00BF7047D000010838020108AA
:1056F000D1000108D2000108D4000108D800010837
:10570000DC000108D90001080401010805010108B5
:1057100006010108080101080A0101080E0101083B
:1057200010010108300101083201010834010108AB
:1057300036010108380101083A0101083C0101085D
:1057400068010108690101086A0101086C0101088A
:105750006E0101086F010108700101087201010862
:105760007401010876010108780101087A01010835
:105770007C010108AC010108AD010108AE0101087E
:10578000AF010108B0010108B2010108B40101082C
:10579000DC010108DD010108DE010108DF0101086B
:1057A000E0010108E2010108E4010108E801010843
:1057B000E9010108EA010108EB010108EC01010817
:1057C000ED010108EE010108EF010108F0010108F7
:1057D000F2010108F3010108F4010108F6010108D2
:1057E000F8010108F9010108FC0101083002010873
:1057F00031020108320201083402010836020108B0
:105800000021034A1160034A1180018070470000A3
:105810004400002048000020002400BF19E000BF21
:1058200000BFFAF749FD044600BF00BF0948006801
:10583000401C0849086008480068401C0649086088
:1058400000BF00BF2046FAF73BFD00BF00BFFEF7D8
:10585000CFFBE4E73C0000208C00002010B58AB0AC
:10586000044600200E4908600B2000210591CDE977
:105870000704069108460B4909680B4A12680B4B4E
:105880001B68CDE90132CDE903103F200023084A0F
:1058900008A100900C48FFF7A9F80AB010BD00005D
:1058A0003C00002034000108300001082C000108F1
:1058B0001958000875432F4F532D49494920496411
:1058C0006C65205461736B00C81800200021034AE6
:1058D0001160034A11800180704700004C000020D5
:1058E0005000002070B501461A4D2D681DB945F2D3
:1058F0001E750D8070BD184D2D881DB945F21D75A2
:105900000D80F7E7134D28682A681032124D2D8854
:105910006D1EACB2002308E00260002545600581E1
:10592000C560103010325D1CABB2A342F4DB002521
:10593000056045600581C560064D2D68074E3560E0
:10594000054D2D88B5800025F58035810D8000BF7F
:10595000D0E700006C000108640001088C190020E9
:1059600010B5014648894B89002B17DD0A680C4B9E
:105970001B6813600A4C4B6823602346DB884C8904
:105980001B1B074CE38023469B884C892344044C13
:10599000A38000234B818B810B604B6010BD000006
:1059A0008C190020018100224281828102604260C4
:1059B000704700000021034A1160034A11800180F2
:1059C0007047000054000020580000202DE9F041ED
:1059D00005460C4616461F461548006880F8346098
:1059E00000201349096881F83500394610480068DD
:1059F00000F088FD6CB104F10808EC600122294632
:105A00000B48006800F016F82946404600F06BF895
:105A100006E0002006490968C88705490968086347
:105A200003480168204600F019F8BDE8F081000045
:105A3000CC00002010B5C287016300230AE00024D7
:105A40004C600C600C614C610C83CC61886020312F
:105A50005C1CA3B29342F2DB10BD000030B548B12C
:105A60004568C1F8C05000F10804226893681D6AB7
:105A7000C56113E091F83450022D02D0072D08D1F2
:105A800003E007A5C1F8C05007E007A5C1F8C05062
:105A900003E008A5C1F8C05000BF00BF30BD000042
:105AA0005461736B205100005461736B2053656D1A
:105AB000000000002000000030B507A5C1F8C0506C
:105AC00000F1080422681AB193681D6AC56101E0FB
:105AD00001A5C56130BD000020000000002101606B
